:020000040800F2
:1000000000040020050100080D0100080F01000890
:10001000110100081301000815010008000000008C
:1000200000000000000000000000000017010008B0
:1000300019010008000000001B0100081D01000854
:100040001F0100081F0100081F0100081F01000810
:100050001F0100081F0100081F0100081F01000800
:100060001F0100081F0100081F0100081F010008F0
:100070001F0100081F0100081F0100081F010008E0
:100080001F0100081F0100081F0100081F010008D0
:100090001F0100081F0100081F0100081F010008C0
:1000A0001F0100081F0100081F0100081F010008B0
:1000B0001F0100081F0100081F0100081F010008A0
:1000C0001F0100081F0100081F0100081F01000890
:1000D0001F0100081F0100081F0100081F01000880
:1000E0001F0100081F0100081F010008DFF810D0E1
:1000F00000F01AF8004800476D010008AFF30080D7
:10010000000400200648804706480047FEE7FEE757
:10011000FEE7FEE7FEE7FEE7FEE7FEE7FEE7FEE7B7
:100120004D010008ED000008064C074D06E0E068B0
:1001300040F0010394E8070098471034AC42F6D32E
:10014000FFF7D8FFA4010008B4010008704702E0DF
:1001500008C8121F08C1002AFAD170477047002052
:1001600001E001C1121F002AFBD170470B490C4A64
:100170000B480C300B6843F004030B60036843F03A
:100180000E03036043F230341368234313600368A3
:1001900023F00203036000BFFEE7000018100240D6
:1001A00000080140B4010008000000200004000025
:0401B0005E010008E4
:0400000508000105E9
:00000001FF
